:100000000C9434000C943E000C943E000C943E0082
:100010000C943E000C943E000C943E000C943E0068
:100020000C943E000C943E000C943E000C943E0058
:100030000C943E000C943E000C943E000C943E0048
:100040000C943E000C943E000C943E000C943E0038
:100050000C943E000C943E000C943E000C943E0028
:100060000C943E000C943E0011241FBECFEFD8E04C
:10007000DEBFCDBF0E9440000C94D4000C94000061
:10008000CF92DF92EF92FF920F931F93DF93CF9364
:100090000F92CDB7DEB71982569A83E08BB9209ABA
:1000A0000E94A5000E94CD0033EFC32E09E110E0AD
:1000B00023EBD22E99E6E92E84E3F82E0E949C00D1
:1000C00089838981813011F4289A01C0289880E0C1
:1000D0000E94AE009C01893C910548F4F7BC80E287
:1000E0009EE4F8013197F1F70197D9F7E7CF825DE8
:1000F00090408352914048F4E7BC80E29EE4F801CE
:100100003197F1F70197D9F7D9CF2E5F31402F3BC7
:10011000310548F4D7BC80E29EE4F8013197F1F74D
:100120000197D9F7CBCFC7BC80E29EE4F8013197A5
:10013000F1F70197D9F7C2CF489B02C080E008953C
:1001400089B1869580958170089580E480937C00C4
:10015000EAE7F0E0808187688083089590917C00D1
:10016000987F90937C0090917C008770892B80937E
:100170007C0080917A00806480937A0080917A007C
:1001800084FFFCCF80917A00806180937A00209177
:10019000780030917900C901089584B5836884BDE1
:0C01A00085B5836085BD0895F894FFCFFD
:00000001FF
