:100000000C9434000C9449000C9449000C94490061
:100010000C9449000C9449000C9449000C9449003C
:100020000C9449000C9449000C9449000C9449002C
:100030000C9449000C9449000C9449000C9449001C
:100040000C9449000C9449000C9449000C9449000C
:100050000C9449000C9449000C9449000C944900FC
:100060000C9449000C94490011241FBECFEFD8E036
:10007000DEBFCDBF11E0A0E0B1E0EAE0F3E002C0F6
:1000800005900D92AC30B107D9F70E9450000C9446
:1000900083010C940000569A209A83E08BB908954E
:1000A0002F923F924F925F926F927F928F929F9288
:1000B000AF92BF92CF92DF92EF92FF920F931F9376
:1000C000DF93CF93CDB7DEB72F970FB6F894DEBF8F
:1000D0000FBECDBFDE011496E0E0F1E083E00190B9
:1000E0000D928150E1F7DE011796E3E0F1E083E045
:1000F00001900D928150E1F7DE011A96E6E0F1E001
:1001000083E001900D928150E1F7DE011D96E9E058
:10011000F1E083E001900D928150E1F7569A209A28
:1001200083E08BB90E9441010E94690187E690E05B
:100130000E947001EDE06E2E712C6C0E7D1E73EF2F
:10014000272E69E1E62EF12C5AE0852E912C8C0E9B
:100150009D1E43EB342E37E0A32EB12CAC0EBD1EFA
:1001600029E6422E94E0C92ED12CCC0EDD1E84E36C
:10017000582E19820E94380189838981813009F0C3
:1001800075C0289A80E00E944A019B838A838A81F5
:100190009B818A819B81893C910590F4860102C0F4
:1001A0000E947B01F80181918F018823C9F757BC18
:1001B00080E29EE4F7013197F1F70197D9F7D9CFA3
:1001C0008A819B81823D9105B8F08A819B81855F00
:1001D000914090F4850102C00E947B01F801819159
:1001E0008F018823C9F747BC80E29EE4F70131976D
:1001F000F1F70197D9F7BDCF8A819B818E5F91403E
:10020000B8F08A819B818D5B924090F4840102C09A
:100210000E947B01F80181918F018823C9F737BCC7
:1002200080E29EE4F7013197F1F70197D9F7A1CF6A
:100230008A819B81865C924008F49BCF8A819B8156
:100240008150944008F095CF830102C00E947B0149
:10025000F80181918F018823C9F727BC80E29EE4D1
:10026000F7013197F1F70197D9F783CF289881CF1C
:10027000489B02C080E0089589B186958095817081
:10028000089580E480937C00EAE7F0E0808187684D
:100290008083089590917C00987F90937C0090914A
:1002A0007C008770892B80937C0080917A00806429
:1002B00080937A0080917A0084FFFCCF80917A004D
:1002C000806180937A002091780030917900C90193
:1002D000089584B5836884BD85B5836085BD089520
:1002E0009093C5008093C40088E18093C1008EE0A4
:1002F0008093C2000895982F8091C00085FFFCCFA5
:0A0300009093C6000895F894FFCF13
:0C030A003230003235003239003332004E
:00000001FF
